{
  "_format": "hh-sol-artifact-1",
  "contractName": "CryptoAqsha",
  "sourceName": "contracts/CryptoAqsha.sol",
  "abi": [
    {
      "inputs": [
        {
          "internalType": "address",
          "name": "initialOwner",
          "type": "address"
        }
      ],
      "stateMutability": "nonpayable",
      "type": "constructor"
    },
    {
      "inputs": [],
      "name": "ERC721EnumerableForbiddenBatchMint",
      "type": "error"
    },
    {
      "inputs": [
        {
          "internalType": "address",
          "name": "sender",
          "type": "address"
        },
        {
          "internalType": "uint256",
          "name": "tokenId",
          "type": "uint256"
        },
        {
          "internalType": "address",
          "name": "owner",
          "type": "address"
        }
      ],
      "name": "ERC721IncorrectOwner",
      "type": "error"
    },
    {
      "inputs": [
        {
          "internalType": "address",
          "name": "operator",
          "type": "address"
        },
        {
          "internalType": "uint256",
          "name": "tokenId",
          "type": "uint256"
        }
      ],
      "name": "ERC721InsufficientApproval",
      "type": "error"
    },
    {
      "inputs": [
        {
          "internalType": "address",
          "name": "approver",
          "type": "address"
        }
      ],
      "name": "ERC721InvalidApprover",
      "type": "error"
    },
    {
      "inputs": [
        {
          "internalType": "address",
          "name": "operator",
          "type": "address"
        }
      ],
      "name": "ERC721InvalidOperator",
      "type": "error"
    },
    {
      "inputs": [
        {
          "internalType": "address",
          "name": "owner",
          "type": "address"
        }
      ],
      "name": "ERC721InvalidOwner",
      "type": "error"
    },
    {
      "inputs": [
        {
          "internalType": "address",
          "name": "receiver",
          "type": "address"
        }
      ],
      "name": "ERC721InvalidReceiver",
      "type": "error"
    },
    {
      "inputs": [
        {
          "internalType": "address",
          "name": "sender",
          "type": "address"
        }
      ],
      "name": "ERC721InvalidSender",
      "type": "error"
    },
    {
      "inputs": [
        {
          "internalType": "uint256",
          "name": "tokenId",
          "type": "uint256"
        }
      ],
      "name": "ERC721NonexistentToken",
      "type": "error"
    },
    {
      "inputs": [
        {
          "internalType": "address",
          "name": "owner",
          "type": "address"
        },
        {
          "internalType": "uint256",
          "name": "index",
          "type": "uint256"
        }
      ],
      "name": "ERC721OutOfBoundsIndex",
      "type": "error"
    },
    {
      "inputs": [
        {
          "internalType": "address",
          "name": "owner",
          "type": "address"
        }
      ],
      "name": "OwnableInvalidOwner",
      "type": "error"
    },
    {
      "inputs": [
        {
          "internalType": "address",
          "name": "account",
          "type": "address"
        }
      ],
      "name": "OwnableUnauthorizedAccount",
      "type": "error"
    },
    {
      "anonymous": false,
      "inputs": [
        {
          "indexed": true,
          "internalType": "address",
          "name": "owner",
          "type": "address"
        },
        {
          "indexed": true,
          "internalType": "address",
          "name": "approved",
          "type": "address"
        },
        {
          "indexed": true,
          "internalType": "uint256",
          "name": "tokenId",
          "type": "uint256"
        }
      ],
      "name": "Approval",
      "type": "event"
    },
    {
      "anonymous": false,
      "inputs": [
        {
          "indexed": true,
          "internalType": "address",
          "name": "owner",
          "type": "address"
        },
        {
          "indexed": true,
          "internalType": "address",
          "name": "operator",
          "type": "address"
        },
        {
          "indexed": false,
          "internalType": "bool",
          "name": "approved",
          "type": "bool"
        }
      ],
      "name": "ApprovalForAll",
      "type": "event"
    },
    {
      "anonymous": false,
      "inputs": [
        {
          "indexed": false,
          "internalType": "uint256",
          "name": "_fromTokenId",
          "type": "uint256"
        },
        {
          "indexed": false,
          "internalType": "uint256",
          "name": "_toTokenId",
          "type": "uint256"
        }
      ],
      "name": "BatchMetadataUpdate",
      "type": "event"
    },
    {
      "anonymous": false,
      "inputs": [
        {
          "indexed": false,
          "internalType": "uint256",
          "name": "_tokenId",
          "type": "uint256"
        }
      ],
      "name": "MetadataUpdate",
      "type": "event"
    },
    {
      "anonymous": false,
      "inputs": [
        {
          "indexed": true,
          "internalType": "address",
          "name": "owner",
          "type": "address"
        },
        {
          "indexed": false,
          "internalType": "uint256",
          "name": "tokenId",
          "type": "uint256"
        },
        {
          "indexed": false,
          "internalType": "string",
          "name": "uri",
          "type": "string"
        }
      ],
      "name": "NFTCreated",
      "type": "event"
    },
    {
      "anonymous": false,
      "inputs": [
        {
          "indexed": true,
          "internalType": "address",
          "name": "previousOwner",
          "type": "address"
        },
        {
          "indexed": true,
          "internalType": "address",
          "name": "newOwner",
          "type": "address"
        }
      ],
      "name": "OwnershipTransferred",
      "type": "event"
    },
    {
      "anonymous": false,
      "inputs": [
        {
          "indexed": true,
          "internalType": "address",
          "name": "from",
          "type": "address"
        },
        {
          "indexed": true,
          "internalType": "address",
          "name": "to",
          "type": "address"
        },
        {
          "indexed": true,
          "internalType": "uint256",
          "name": "tokenId",
          "type": "uint256"
        }
      ],
      "name": "Transfer",
      "type": "event"
    },
    {
      "inputs": [
        {
          "internalType": "address",
          "name": "to",
          "type": "address"
        },
        {
          "internalType": "uint256",
          "name": "tokenId",
          "type": "uint256"
        }
      ],
      "name": "approve",
      "outputs": [],
      "stateMutability": "nonpayable",
      "type": "function"
    },
    {
      "inputs": [
        {
          "internalType": "address",
          "name": "owner",
          "type": "address"
        }
      ],
      "name": "balanceOf",
      "outputs": [
        {
          "internalType": "uint256",
          "name": "",
          "type": "uint256"
        }
      ],
      "stateMutability": "view",
      "type": "function"
    },
    {
      "inputs": [
        {
          "internalType": "uint256",
          "name": "tokenId",
          "type": "uint256"
        }
      ],
      "name": "burn",
      "outputs": [],
      "stateMutability": "nonpayable",
      "type": "function"
    },
    {
      "inputs": [
        {
          "internalType": "uint256",
          "name": "tokenId",
          "type": "uint256"
        }
      ],
      "name": "getApproved",
      "outputs": [
        {
          "internalType": "address",
          "name": "",
          "type": "address"
        }
      ],
      "stateMutability": "view",
      "type": "function"
    },
    {
      "inputs": [
        {
          "internalType": "string",
          "name": "uri",
          "type": "string"
        }
      ],
      "name": "getTokenIdByURI",
      "outputs": [
        {
          "internalType": "uint256",
          "name": "",
          "type": "uint256"
        }
      ],
      "stateMutability": "view",
      "type": "function"
    },
    {
      "inputs": [
        {
          "internalType": "address",
          "name": "owner",
          "type": "address"
        }
      ],
      "name": "getTokensForAddress",
      "outputs": [
        {
          "internalType": "string[]",
          "name": "",
          "type": "string[]"
        }
      ],
      "stateMutability": "view",
      "type": "function"
    },
    {
      "inputs": [
        {
          "internalType": "address",
          "name": "owner",
          "type": "address"
        },
        {
          "internalType": "address",
          "name": "operator",
          "type": "address"
        }
      ],
      "name": "isApprovedForAll",
      "outputs": [
        {
          "internalType": "bool",
          "name": "",
          "type": "bool"
        }
      ],
      "stateMutability": "view",
      "type": "function"
    },
    {
      "inputs": [],
      "name": "name",
      "outputs": [
        {
          "internalType": "string",
          "name": "",
          "type": "string"
        }
      ],
      "stateMutability": "view",
      "type": "function"
    },
    {
      "inputs": [],
      "name": "owner",
      "outputs": [
        {
          "internalType": "address",
          "name": "",
          "type": "address"
        }
      ],
      "stateMutability": "view",
      "type": "function"
    },
    {
      "inputs": [
        {
          "internalType": "uint256",
          "name": "tokenId",
          "type": "uint256"
        }
      ],
      "name": "ownerOf",
      "outputs": [
        {
          "internalType": "address",
          "name": "",
          "type": "address"
        }
      ],
      "stateMutability": "view",
      "type": "function"
    },
    {
      "inputs": [],
      "name": "renounceOwnership",
      "outputs": [],
      "stateMutability": "nonpayable",
      "type": "function"
    },
    {
      "inputs": [
        {
          "internalType": "address",
          "name": "to",
          "type": "address"
        },
        {
          "internalType": "string",
          "name": "uri",
          "type": "string"
        }
      ],
      "name": "safeMint",
      "outputs": [],
      "stateMutability": "nonpayable",
      "type": "function"
    },
    {
      "inputs": [
        {
          "internalType": "address",
          "name": "from",
          "type": "address"
        },
        {
          "internalType": "address",
          "name": "to",
          "type": "address"
        },
        {
          "internalType": "uint256",
          "name": "tokenId",
          "type": "uint256"
        }
      ],
      "name": "safeTransferFrom",
      "outputs": [],
      "stateMutability": "nonpayable",
      "type": "function"
    },
    {
      "inputs": [
        {
          "internalType": "address",
          "name": "from",
          "type": "address"
        },
        {
          "internalType": "address",
          "name": "to",
          "type": "address"
        },
        {
          "internalType": "uint256",
          "name": "tokenId",
          "type": "uint256"
        },
        {
          "internalType": "bytes",
          "name": "data",
          "type": "bytes"
        }
      ],
      "name": "safeTransferFrom",
      "outputs": [],
      "stateMutability": "nonpayable",
      "type": "function"
    },
    {
      "inputs": [
        {
          "internalType": "address",
          "name": "operator",
          "type": "address"
        },
        {
          "internalType": "bool",
          "name": "approved",
          "type": "bool"
        }
      ],
      "name": "setApprovalForAll",
      "outputs": [],
      "stateMutability": "nonpayable",
      "type": "function"
    },
    {
      "inputs": [
        {
          "internalType": "bytes4",
          "name": "interfaceId",
          "type": "bytes4"
        }
      ],
      "name": "supportsInterface",
      "outputs": [
        {
          "internalType": "bool",
          "name": "",
          "type": "bool"
        }
      ],
      "stateMutability": "view",
      "type": "function"
    },
    {
      "inputs": [],
      "name": "symbol",
      "outputs": [
        {
          "internalType": "string",
          "name": "",
          "type": "string"
        }
      ],
      "stateMutability": "view",
      "type": "function"
    },
    {
      "inputs": [
        {
          "internalType": "uint256",
          "name": "index",
          "type": "uint256"
        }
      ],
      "name": "tokenByIndex",
      "outputs": [
        {
          "internalType": "uint256",
          "name": "",
          "type": "uint256"
        }
      ],
      "stateMutability": "view",
      "type": "function"
    },
    {
      "inputs": [
        {
          "internalType": "address",
          "name": "owner",
          "type": "address"
        },
        {
          "internalType": "uint256",
          "name": "index",
          "type": "uint256"
        }
      ],
      "name": "tokenOfOwnerByIndex",
      "outputs": [
        {
          "internalType": "uint256",
          "name": "",
          "type": "uint256"
        }
      ],
      "stateMutability": "view",
      "type": "function"
    },
    {
      "inputs": [
        {
          "internalType": "uint256",
          "name": "tokenId",
          "type": "uint256"
        }
      ],
      "name": "tokenURI",
      "outputs": [
        {
          "internalType": "string",
          "name": "",
          "type": "string"
        }
      ],
      "stateMutability": "view",
      "type": "function"
    },
    {
      "inputs": [],
      "name": "totalSupply",
      "outputs": [
        {
          "internalType": "uint256",
          "name": "",
          "type": "uint256"
        }
      ],
      "stateMutability": "view",
      "type": "function"
    },
    {
      "inputs": [
        {
          "internalType": "address",
          "name": "from",
          "type": "address"
        },
        {
          "internalType": "address",
          "name": "to",
          "type": "address"
        },
        {
          "internalType": "uint256",
          "name": "tokenId",
          "type": "uint256"
        }
      ],
      "name": "transferFrom",
      "outputs": [],
      "stateMutability": "nonpayable",
      "type": "function"
    },
    {
      "inputs": [
        {
          "internalType": "address",
          "name": "newOwner",
          "type": "address"
        }
      ],
      "name": "transferOwnership",
      "outputs": [],
      "stateMutability": "nonpayable",
      "type": "function"
    }
  ],
  "bytecode": "0x60806040523480156200001157600080fd5b5060405162001e1738038062001e1783398101604081905262000034916200012c565b806040518060400160405280600b81526020016a43727970746f417173686160a81b8152506040518060400160405280600381526020016243415160e81b815250816000908162000086919062000203565b50600162000095828262000203565b5050506001600160a01b038116620000c757604051631e4fbdf760e01b81526000600482015260240160405180910390fd5b620000d281620000da565b5050620002cf565b600b80546001600160a01b038381166001600160a01b0319831681179093556040519116919082907f8be0079c531659141344cd1fd0a4f28419497f9722a3daafe3b4186f6b6457e090600090a35050565b6000602082840312156200013f57600080fd5b81516001600160a01b03811681146200015757600080fd5b9392505050565b634e487b7160e01b600052604160045260246000fd5b600181811c908216806200018957607f821691505b602082108103620001aa57634e487b7160e01b600052602260045260246000fd5b50919050565b601f821115620001fe57600081815260208120601f850160051c81016020861015620001d95750805b601f850160051c820191505b81811015620001fa57828155600101620001e5565b5050505b505050565b81516001600160401b038111156200021f576200021f6200015e565b620002378162000230845462000174565b84620001b0565b602080601f8311600181146200026f5760008415620002565750858301515b600019600386901b1c1916600185901b178555620001fa565b600085815260208120601f198616915b82811015620002a0578886015182559484019460019091019084016200027f565b5085821015620002bf5787850151600019600388901b60f8161c191681555b5050505050600190811b01905550565b611b3880620002df6000396000f3fe608060405234801561001057600080fd5b506004361061014d5760003560e01c80634f6ccce7116100c3578063a22cb4651161007c578063a22cb465146102be578063b88d4fde146102d1578063c87b56dd146102e4578063d204c45e146102f7578063e985e9c51461030a578063f2fde38b1461031d57600080fd5b80634f6ccce7146102645780636352211e1461027757806370a082311461028a578063715018a61461029d5780638da5cb5b146102a557806395d89b41146102b657600080fd5b8063118f970811610115578063118f9708146101ef57806318160ddd1461021057806323b872dd146102185780632f745c591461022b57806342842e0e1461023e57806342966c681461025157600080fd5b806301ffc9a71461015257806306fdde031461017a578063081812fc1461018f578063095ea7b3146101ba5780630f60e3ce146101cf575b600080fd5b6101656101603660046114a6565b610330565b60405190151581526020015b60405180910390f35b610182610341565b6040516101719190611513565b6101a261019d366004611526565b6103d3565b6040516001600160a01b039091168152602001610171565b6101cd6101c836600461155b565b6103fc565b005b6101e26101dd366004611585565b61040b565b60405161017191906115a0565b6102026101fd36600461164b565b6104dd565b604051908152602001610171565b600854610202565b6101cd61022636600461168d565b610508565b61020261023936600461155b565b610598565b6101cd61024c36600461168d565b6105fd565b6101cd61025f366004611526565b61061d565b610202610272366004611526565b610629565b6101a2610285366004611526565b610682565b610202610298366004611585565b61068d565b6101cd6106d5565b600b546001600160a01b03166101a2565b6101826106e9565b6101cd6102cc3660046116c9565b6106f8565b6101cd6102df36600461171b565b610703565b6101826102f2366004611526565b61071a565b6101cd6103053660046117f7565b610725565b61016561031836600461184a565b6107f6565b6101cd61032b366004611585565b610824565b600061033b82610862565b92915050565b6060600080546103509061187d565b80601f016020809104026020016040519081016040528092919081815260200182805461037c9061187d565b80156103c95780601f1061039e576101008083540402835291602001916103c9565b820191906000526020600020905b8154815290600101906020018083116103ac57829003601f168201915b5050505050905090565b60006103de82610887565b506000828152600460205260409020546001600160a01b031661033b565b6104078282336108c0565b5050565b606060006104188361068d565b905060008167ffffffffffffffff81111561043557610435611705565b60405190808252806020026020018201604052801561046857816020015b60608152602001906001900390816104535790505b5090506000805b838110156104d35760006104838783610598565b905060006104908261071a565b9050808585815181106104a5576104a56118b7565b602002602001018190525083806104bb906118e3565b945050505080806104cb906118e3565b91505061046f565b5090949350505050565b6000600d83836040516104f19291906118fc565b908152602001604051809103902054905092915050565b6001600160a01b03821661053757604051633250574960e11b8152600060048201526024015b60405180910390fd5b60006105448383336108cd565b9050836001600160a01b0316816001600160a01b031614610592576040516364283d7b60e01b81526001600160a01b038086166004830152602482018490528216604482015260640161052e565b50505050565b60006105a38361068d565b82106105d45760405163295f44f760e21b81526001600160a01b03841660048201526024810183905260440161052e565b506001600160a01b03919091166000908152600660209081526040808320938352929052205490565b61061883838360405180602001604052806000815250610703565b505050565b610407600082336108cd565b600061063460085490565b821061065d5760405163295f44f760e21b8152600060048201526024810183905260440161052e565b60088281548110610670576106706118b7565b90600052602060002001549050919050565b600061033b82610887565b60006001600160a01b0382166106b9576040516322718ad960e21b81526000600482015260240161052e565b506001600160a01b031660009081526003602052604090205490565b6106dd6108e2565b6106e7600061090f565b565b6060600180546103509061187d565b610407338383610961565b61070e848484610508565b61059284848484610a00565b606061033b82610b29565b600c805460009182610736836118e3565b9190505590506107468482610c32565b6107868184848080601f016020809104026020016040519081016040528093929190818152602001838380828437600092019190915250610c4c92505050565b80600d84846040516107999291906118fc565b908152602001604051809103902081905550836001600160a01b03167f403f45e064e1472b925888509d0e5164b4642f3064c519d162e3b9261c204adc8285856040516107e89392919061190c565b60405180910390a250505050565b6001600160a01b03918216600090815260056020908152604080832093909416825291909152205460ff1690565b61082c6108e2565b6001600160a01b03811661085657604051631e4fbdf760e01b81526000600482015260240161052e565b61085f8161090f565b50565b60006001600160e01b03198216632483248360e11b148061033b575061033b82610c9c565b6000818152600260205260408120546001600160a01b03168061033b57604051637e27328960e01b81526004810184905260240161052e565b6106188383836001610cc1565b60006108da848484610dc7565b949350505050565b600b546001600160a01b031633146106e75760405163118cdaa760e01b815233600482015260240161052e565b600b80546001600160a01b038381166001600160a01b0319831681179093556040519116919082907f8be0079c531659141344cd1fd0a4f28419497f9722a3daafe3b4186f6b6457e090600090a35050565b6001600160a01b03821661099357604051630b61174360e31b81526001600160a01b038316600482015260240161052e565b6001600160a01b03838116600081815260056020908152604080832094871680845294825291829020805460ff191686151590811790915591519182527f17307eab39ab6107e8899845ad3d59bd9653f200f220920489ca2b5937696c31910160405180910390a3505050565b6001600160a01b0383163b1561059257604051630a85bd0160e11b81526001600160a01b0384169063150b7a0290610a42903390889087908790600401611942565b6020604051808303816000875af1925050508015610a7d575060408051601f3d908101601f19168201909252610a7a9181019061197f565b60015b610ae6573d808015610aab576040519150601f19603f3d011682016040523d82523d6000602084013e610ab0565b606091505b508051600003610ade57604051633250574960e11b81526001600160a01b038516600482015260240161052e565b805181602001fd5b6001600160e01b03198116630a85bd0160e11b14610b2257604051633250574960e11b81526001600160a01b038516600482015260240161052e565b5050505050565b6060610b3482610887565b506000828152600a602052604081208054610b4e9061187d565b80601f0160208091040260200160405190810160405280929190818152602001828054610b7a9061187d565b8015610bc75780601f10610b9c57610100808354040283529160200191610bc7565b820191906000526020600020905b815481529060010190602001808311610baa57829003601f168201915b505050505090506000610be560408051602081019091526000815290565b90508051600003610bf7575092915050565b815115610c29578082604051602001610c1192919061199c565b60405160208183030381529060405292505050919050565b6108da84610e94565b610407828260405180602001604052806000815250610f09565b6000828152600a60205260409020610c648282611a19565b506040518281527ff8e1a15aba9398e019f0b49df1a4fde98ee17ae345cb5f6b5e2c27f5033e8ce79060200160405180910390a15050565b60006001600160e01b0319821663780e9d6360e01b148061033b575061033b82610f20565b8080610cd557506001600160a01b03821615155b15610d97576000610ce584610887565b90506001600160a01b03831615801590610d115750826001600160a01b0316816001600160a01b031614155b8015610d245750610d2281846107f6565b155b15610d4d5760405163a9fbf51f60e01b81526001600160a01b038416600482015260240161052e565b8115610d955783856001600160a01b0316826001600160a01b03167f8c5be1e5ebec7d5bd14f71427d1e84f3dd0314c0f7b2291e5b200ac8c7c3b92560405160405180910390a45b505b5050600090815260046020526040902080546001600160a01b0319166001600160a01b0392909216919091179055565b600080610dd5858585610f70565b90506001600160a01b038116610e3257610e2d84600880546000838152600960205260408120829055600182018355919091527ff3f7a9fe364faab93b216da50a3214154f22a0a2b415b23a84c8169e8b636ee30155565b610e55565b846001600160a01b0316816001600160a01b031614610e5557610e558185611069565b6001600160a01b038516610e7157610e6c846110fa565b6108da565b846001600160a01b0316816001600160a01b0316146108da576108da85856111a9565b6060610e9f82610887565b506000610eb760408051602081019091526000815290565b90506000815111610ed75760405180602001604052806000815250610f02565b80610ee1846111f9565b604051602001610ef292919061199c565b6040516020818303038152906040525b9392505050565b610f13838361128c565b6106186000848484610a00565b60006001600160e01b031982166380ac58cd60e01b1480610f5157506001600160e01b03198216635b5e139f60e01b145b8061033b57506301ffc9a760e01b6001600160e01b031983161461033b565b6000828152600260205260408120546001600160a01b0390811690831615610f9d57610f9d8184866112f1565b6001600160a01b03811615610fdb57610fba600085600080610cc1565b6001600160a01b038116600090815260036020526040902080546000190190555b6001600160a01b0385161561100a576001600160a01b0385166000908152600360205260409020805460010190555b60008481526002602052604080822080546001600160a01b0319166001600160a01b0389811691821790925591518793918516917fddf252ad1be2c89b69c2b068fc378daa952ba7f163c4a11628f55a4df523b3ef91a4949350505050565b60006110748361068d565b6000838152600760205260409020549091508082146110c7576001600160a01b03841660009081526006602090815260408083208584528252808320548484528184208190558352600790915290208190555b5060009182526007602090815260408084208490556001600160a01b039094168352600681528383209183525290812055565b60085460009061110c90600190611ad9565b60008381526009602052604081205460088054939450909284908110611134576111346118b7565b906000526020600020015490508060088381548110611155576111556118b7565b600091825260208083209091019290925582815260099091526040808220849055858252812055600880548061118d5761118d611aec565b6001900381819060005260206000200160009055905550505050565b600060016111b68461068d565b6111c09190611ad9565b6001600160a01b039093166000908152600660209081526040808320868452825280832085905593825260079052919091209190915550565b6060600061120683611355565b600101905060008167ffffffffffffffff81111561122657611226611705565b6040519080825280601f01601f191660200182016040528015611250576020820181803683370190505b5090508181016020015b600019016f181899199a1a9b1b9c1cb0b131b232b360811b600a86061a8153600a850494508461125a57509392505050565b6001600160a01b0382166112b657604051633250574960e11b81526000600482015260240161052e565b60006112c4838360006108cd565b90506001600160a01b03811615610618576040516339e3563760e11b81526000600482015260240161052e565b6112fc83838361142d565b610618576001600160a01b03831661132a57604051637e27328960e01b81526004810182905260240161052e565b60405163177e802f60e01b81526001600160a01b03831660048201526024810182905260440161052e565b60008072184f03e93ff9f4daa797ed6e38ed64bf6a1f0160401b83106113945772184f03e93ff9f4daa797ed6e38ed64bf6a1f0160401b830492506040015b6d04ee2d6d415b85acef810000000083106113c0576d04ee2d6d415b85acef8100000000830492506020015b662386f26fc1000083106113de57662386f26fc10000830492506010015b6305f5e10083106113f6576305f5e100830492506008015b612710831061140a57612710830492506004015b6064831061141c576064830492506002015b600a831061033b5760010192915050565b60006001600160a01b038316158015906108da5750826001600160a01b0316846001600160a01b03161480611467575061146784846107f6565b806108da5750506000908152600460205260409020546001600160a01b03908116911614919050565b6001600160e01b03198116811461085f57600080fd5b6000602082840312156114b857600080fd5b8135610f0281611490565b60005b838110156114de5781810151838201526020016114c6565b50506000910152565b600081518084526114ff8160208601602086016114c3565b601f01601f19169290920160200192915050565b602081526000610f0260208301846114e7565b60006020828403121561153857600080fd5b5035919050565b80356001600160a01b038116811461155657600080fd5b919050565b6000806040838503121561156e57600080fd5b6115778361153f565b946020939093013593505050565b60006020828403121561159757600080fd5b610f028261153f565b6000602080830181845280855180835260408601915060408160051b870101925083870160005b828110156115f557603f198886030184526115e38583516114e7565b945092850192908501906001016115c7565b5092979650505050505050565b60008083601f84011261161457600080fd5b50813567ffffffffffffffff81111561162c57600080fd5b60208301915083602082850101111561164457600080fd5b9250929050565b6000806020838503121561165e57600080fd5b823567ffffffffffffffff81111561167557600080fd5b61168185828601611602565b90969095509350505050565b6000806000606084860312156116a257600080fd5b6116ab8461153f565b92506116b96020850161153f565b9150604084013590509250925092565b600080604083850312156116dc57600080fd5b6116e58361153f565b9150602083013580151581146116fa57600080fd5b809150509250929050565b634e487b7160e01b600052604160045260246000fd5b6000806000806080858703121561173157600080fd5b61173a8561153f565b93506117486020860161153f565b925060408501359150606085013567ffffffffffffffff8082111561176c57600080fd5b818701915087601f83011261178057600080fd5b81358181111561179257611792611705565b604051601f8201601f19908116603f011681019083821181831017156117ba576117ba611705565b816040528281528a60208487010111156117d357600080fd5b82602086016020830137600060208483010152809550505050505092959194509250565b60008060006040848603121561180c57600080fd5b6118158461153f565b9250602084013567ffffffffffffffff81111561183157600080fd5b61183d86828701611602565b9497909650939450505050565b6000806040838503121561185d57600080fd5b6118668361153f565b91506118746020840161153f565b90509250929050565b600181811c9082168061189157607f821691505b6020821081036118b157634e487b7160e01b600052602260045260246000fd5b50919050565b634e487b7160e01b600052603260045260246000fd5b634e487b7160e01b600052601160045260246000fd5b6000600182016118f5576118f56118cd565b5060010190565b8183823760009101908152919050565b83815260406020820152816040820152818360608301376000818301606090810191909152601f909201601f1916010192915050565b6001600160a01b0385811682528416602082015260408101839052608060608201819052600090611975908301846114e7565b9695505050505050565b60006020828403121561199157600080fd5b8151610f0281611490565b600083516119ae8184602088016114c3565b8351908301906119c28183602088016114c3565b01949350505050565b601f82111561061857600081815260208120601f850160051c810160208610156119f25750805b601f850160051c820191505b81811015611a11578281556001016119fe565b505050505050565b815167ffffffffffffffff811115611a3357611a33611705565b611a4781611a41845461187d565b846119cb565b602080601f831160018114611a7c5760008415611a645750858301515b600019600386901b1c1916600185901b178555611a11565b600085815260208120601f198616915b82811015611aab57888601518255948401946001909101908401611a8c565b5085821015611ac95787850151600019600388901b60f8161c191681555b5050505050600190811b01905550565b8181038181111561033b5761033b6118cd565b634e487b7160e01b600052603160045260246000fdfea2646970667358221220928223317a7d32a5dafeb57ab31dd1942dfcc4ad3f6eccaf3fbd486122888bb564736f6c63430008140033",
  "linkReferences": {},
  "deployedLinkReferences": {}
}